{
  "_format": "hh-sol-artifact-1",
  "contractName": "MultiPriceDataConsumer",
  "sourceName": "contracts/PriceConsumer.sol",
  "abi": [
    {
      "inputs": [],
      "stateMutability": "nonpayable",
      "type": "constructor"
    },
    {
      "inputs": [
        {
          "internalType": "string",
          "name": "pair",
          "type": "string"
        },
        {
          "internalType": "address",
          "name": "aggregatorAddress",
          "type": "address"
        }
      ],
      "name": "addPair",
      "outputs": [],
      "stateMutability": "nonpayable",
      "type": "function"
    },
    {
      "inputs": [
        {
          "internalType": "string",
          "name": "pair",
          "type": "string"
        }
      ],
      "name": "getLatestPrice",
      "outputs": [
        {
          "internalType": "int256",
          "name": "",
          "type": "int256"
        }
      ],
      "stateMutability": "view",
      "type": "function"
    },
    {
      "inputs": [],
      "name": "getSupportedPairs",
      "outputs": [
        {
          "internalType": "string[]",
          "name": "",
          "type": "string[]"
        }
      ],
      "stateMutability": "view",
      "type": "function"
    },
    {
      "inputs": [
        {
          "internalType": "uint256",
          "name": "",
          "type": "uint256"
        }
      ],
      "name": "supportedPairs",
      "outputs": [
        {
          "internalType": "string",
          "name": "",
          "type": "string"
        }
      ],
      "stateMutability": "view",
      "type": "function"
    }
  ],
  "bytecode": "0x608060405234801561001057600080fd5b5061006a6040518060400160405280600781526020017f4254432f55534400000000000000000000000000000000000000000000000000815250731b44f3514812d835eb1bdb0acb33d3fa3351ee4361022c60201b60201c565b6100c36040518060400160405280600781526020017f4554482f5553440000000000000000000000000000000000000000000000000081525073694aa1769357215de4fac081bf1f309adc32530661022c60201b60201c565b61011c6040518060400160405280600781526020017f4254432f45544800000000000000000000000000000000000000000000000000815250735fb1616f78da7afc9ff79e0371741a747d2a7f2261022c60201b60201c565b6101756040518060400160405280600881526020017f4c494e4b2f55534400000000000000000000000000000000000000000000000081525073c59e3633baac79493d908e63626716e204a45edf61022c60201b60201c565b6101ce6040518060400160405280600881526020017f4c494e4b2f4554480000000000000000000000000000000000000000000000008152507342585ed362b3f1bca95c640fdff35ef89921273461022c60201b60201c565b6102276040518060400160405280600781526020017f4555522f55534400000000000000000000000000000000000000000000000000815250731a81afb8146aeffcfc5e50e8479e826e7d55b91061022c60201b60201c565b610866565b600073ffffffffffffffffffffffffffffffffffffffff168173ffffffffffffffffffffffffffffffffffffffff160361029b576040517f08c379a00000000000000000000000000000000000000000000000000000000081526004016102929061043b565b60405180910390fd5b600073ffffffffffffffffffffffffffffffffffffffff166000836040516102c391906104cc565b908152602001604051809103902060009054906101000a900473ffffffffffffffffffffffffffffffffffffffff1673ffffffffffffffffffffffffffffffffffffffff1614610348576040517f08c379a000000000000000000000000000000000000000000000000000000000815260040161033f9061052f565b60405180910390fd5b8060008360405161035991906104cc565b908152602001604051809103902060006101000a81548173ffffffffffffffffffffffffffffffffffffffff021916908373ffffffffffffffffffffffffffffffffffffffff1602179055506001829080600181540180825580915050600190039060005260206000200160009091909190915090816103d99190610794565b505050565b600082825260208201905092915050565b7f496e76616c69642061676772656761746f722061646472657373000000000000600082015250565b6000610425601a836103de565b9150610430826103ef565b602082019050919050565b6000602082019050818103600083015261045481610418565b9050919050565b600081519050919050565b600081905092915050565b60005b8381101561048f578082015181840152602081019050610474565b60008484015250505050565b60006104a68261045b565b6104b08185610466565b93506104c0818560208601610471565b80840191505092915050565b60006104d8828461049b565b915081905092915050565b7f5061697220616c72656164792065786973747300000000000000000000000000600082015250565b60006105196013836103de565b9150610524826104e3565b602082019050919050565b600060208201905081810360008301526105488161050c565b9050919050565b7f4e487b7100000000000000000000000000000000000000000000000000000000600052604160045260246000fd5b7f4e487b7100000000000000000000000000000000000000000000000000000000600052602260045260246000fd5b600060028204905060018216806105c557607f821691505b6020821081036105d8576105d761057e565b5b50919050565b60008190508160005260206000209050919050565b60006020601f8301049050919050565b600082821b905092915050565b6000600883026106407fffffffffffffffffffffffffffffffffffffffffffffffffffffffffffffffff82610603565b61064a8683610603565b95508019841693508086168417925050509392505050565b6000819050919050565b6000819050919050565b600061069161068c61068784610662565b61066c565b610662565b9050919050565b6000819050919050565b6106ab83610676565b6106bf6106b782610698565b848454610610565b825550505050565b600090565b6106d46106c7565b6106df8184846106a2565b505050565b5b81811015610703576106f86000826106cc565b6001810190506106e5565b5050565b601f82111561074857610719816105de565b610722846105f3565b81016020851015610731578190505b61074561073d856105f3565b8301826106e4565b50505b505050565b600082821c905092915050565b600061076b6000198460080261074d565b1980831691505092915050565b6000610784838361075a565b9150826002028217905092915050565b61079d8261045b565b67ffffffffffffffff8111156107b6576107b561054f565b5b6107c082546105ad565b6107cb828285610707565b600060209050601f8311600181146107fe57600084156107ec578287015190505b6107f68582610778565b86555061085e565b601f19841661080c866105de565b60005b828110156108345784890151825560018201915060208501945060208101905061080f565b86831015610851578489015161084d601f89168261075a565b8355505b6001600288020188555050505b505050505050565b610ff9806108756000396000f3fe608060405234801561001057600080fd5b506004361061004c5760003560e01c8063d527c99814610051578063e17ddf5d1461006f578063f66a1b711461009f578063f925dacf146100cf575b600080fd5b6100596100eb565b60405161006691906106df565b60405180910390f35b6100896004803603810190610084919061074b565b6101c4565b60405161009691906107c2565b60405180910390f35b6100b960048036038101906100b49190610919565b610270565b6040516100c6919061097b565b60405180910390f35b6100e960048036038101906100e491906109f4565b6103db565b005b60606001805480602002602001604051908101604052809291908181526020016000905b828210156101bb57838290600052602060002001805461012e90610a7f565b80601f016020809104026020016040519081016040528092919081815260200182805461015a90610a7f565b80156101a75780601f1061017c576101008083540402835291602001916101a7565b820191906000526020600020905b81548152906001019060200180831161018a57829003601f168201915b50505050508152602001906001019061010f565b50505050905090565b600181815481106101d457600080fd5b9060005260206000200160009150905080546101ef90610a7f565b80601f016020809104026020016040519081016040528092919081815260200182805461021b90610a7f565b80156102685780601f1061023d57610100808354040283529160200191610268565b820191906000526020600020905b81548152906001019060200180831161024b57829003601f168201915b505050505081565b60008073ffffffffffffffffffffffffffffffffffffffff166000836040516102999190610aec565b908152602001604051809103902060009054906101000a900473ffffffffffffffffffffffffffffffffffffffff1673ffffffffffffffffffffffffffffffffffffffff160361031e576040517f08c379a000000000000000000000000000000000000000000000000000000000815260040161031590610b4f565b60405180910390fd5b6000808360405161032f9190610aec565b908152602001604051809103902060009054906101000a900473ffffffffffffffffffffffffffffffffffffffff1673ffffffffffffffffffffffffffffffffffffffff1663feaf968c6040518163ffffffff1660e01b815260040160a060405180830381865afa1580156103a8573d6000803e3d6000fd5b505050506040513d601f19601f820116820180604052508101906103cc9190610bf2565b50505091505080915050919050565b600073ffffffffffffffffffffffffffffffffffffffff168173ffffffffffffffffffffffffffffffffffffffff160361044a576040517f08c379a000000000000000000000000000000000000000000000000000000000815260040161044190610cb9565b60405180910390fd5b600073ffffffffffffffffffffffffffffffffffffffff166000836040516104729190610aec565b908152602001604051809103902060009054906101000a900473ffffffffffffffffffffffffffffffffffffffff1673ffffffffffffffffffffffffffffffffffffffff16146104f7576040517f08c379a00000000000000000000000000000000000000000000000000000000081526004016104ee90610d25565b60405180910390fd5b806000836040516105089190610aec565b908152602001604051809103902060006101000a81548173ffffffffffffffffffffffffffffffffffffffff021916908373ffffffffffffffffffffffffffffffffffffffff1602179055506001829080600181540180825580915050600190039060005260206000200160009091909190915090816105889190610ef1565b505050565b600081519050919050565b600082825260208201905092915050565b6000819050602082019050919050565b600081519050919050565b600082825260208201905092915050565b60005b838110156105f35780820151818401526020810190506105d8565b60008484015250505050565b6000601f19601f8301169050919050565b600061061b826105b9565b61062581856105c4565b93506106358185602086016105d5565b61063e816105ff565b840191505092915050565b60006106558383610610565b905092915050565b6000602082019050919050565b60006106758261058d565b61067f8185610598565b935083602082028501610691856105a9565b8060005b858110156106cd57848403895281516106ae8582610649565b94506106b98361065d565b925060208a01995050600181019050610695565b50829750879550505050505092915050565b600060208201905081810360008301526106f9818461066a565b905092915050565b6000604051905090565b600080fd5b600080fd5b6000819050919050565b61072881610715565b811461073357600080fd5b50565b6000813590506107458161071f565b92915050565b6000602082840312156107615761076061070b565b5b600061076f84828501610736565b91505092915050565b600082825260208201905092915050565b6000610794826105b9565b61079e8185610778565b93506107ae8185602086016105d5565b6107b7816105ff565b840191505092915050565b600060208201905081810360008301526107dc8184610789565b905092915050565b600080fd5b600080fd5b7f4e487b7100000000000000000000000000000000000000000000000000000000600052604160045260246000fd5b610826826105ff565b810181811067ffffffffffffffff82111715610845576108446107ee565b5b80604052505050565b6000610858610701565b9050610864828261081d565b919050565b600067ffffffffffffffff821115610884576108836107ee565b5b61088d826105ff565b9050602081019050919050565b82818337600083830152505050565b60006108bc6108b784610869565b61084e565b9050828152602081018484840111156108d8576108d76107e9565b5b6108e384828561089a565b509392505050565b600082601f830112610900576108ff6107e4565b5b81356109108482602086016108a9565b91505092915050565b60006020828403121561092f5761092e61070b565b5b600082013567ffffffffffffffff81111561094d5761094c610710565b5b610959848285016108eb565b91505092915050565b6000819050919050565b61097581610962565b82525050565b6000602082019050610990600083018461096c565b92915050565b600073ffffffffffffffffffffffffffffffffffffffff82169050919050565b60006109c182610996565b9050919050565b6109d1816109b6565b81146109dc57600080fd5b50565b6000813590506109ee816109c8565b92915050565b60008060408385031215610a0b57610a0a61070b565b5b600083013567ffffffffffffffff811115610a2957610a28610710565b5b610a35858286016108eb565b9250506020610a46858286016109df565b9150509250929050565b7f4e487b7100000000000000000000000000000000000000000000000000000000600052602260045260246000fd5b60006002820490506001821680610a9757607f821691505b602082108103610aaa57610aa9610a50565b5b50919050565b600081905092915050565b6000610ac6826105b9565b610ad08185610ab0565b9350610ae08185602086016105d5565b80840191505092915050565b6000610af88284610abb565b915081905092915050565b7f50616972206e6f7420737570706f727465640000000000000000000000000000600082015250565b6000610b39601283610778565b9150610b4482610b03565b602082019050919050565b60006020820190508181036000830152610b6881610b2c565b9050919050565b600069ffffffffffffffffffff82169050919050565b610b8e81610b6f565b8114610b9957600080fd5b50565b600081519050610bab81610b85565b92915050565b610bba81610962565b8114610bc557600080fd5b50565b600081519050610bd781610bb1565b92915050565b600081519050610bec8161071f565b92915050565b600080600080600060a08688031215610c0e57610c0d61070b565b5b6000610c1c88828901610b9c565b9550506020610c2d88828901610bc8565b9450506040610c3e88828901610bdd565b9350506060610c4f88828901610bdd565b9250506080610c6088828901610b9c565b9150509295509295909350565b7f496e76616c69642061676772656761746f722061646472657373000000000000600082015250565b6000610ca3601a83610778565b9150610cae82610c6d565b602082019050919050565b60006020820190508181036000830152610cd281610c96565b9050919050565b7f5061697220616c72656164792065786973747300000000000000000000000000600082015250565b6000610d0f601383610778565b9150610d1a82610cd9565b602082019050919050565b60006020820190508181036000830152610d3e81610d02565b9050919050565b60008190508160005260206000209050919050565b60006020601f8301049050919050565b600082821b905092915050565b600060088302610da77fffffffffffffffffffffffffffffffffffffffffffffffffffffffffffffffff82610d6a565b610db18683610d6a565b95508019841693508086168417925050509392505050565b6000819050919050565b6000610dee610de9610de484610715565b610dc9565b610715565b9050919050565b6000819050919050565b610e0883610dd3565b610e1c610e1482610df5565b848454610d77565b825550505050565b600090565b610e31610e24565b610e3c818484610dff565b505050565b5b81811015610e6057610e55600082610e29565b600181019050610e42565b5050565b601f821115610ea557610e7681610d45565b610e7f84610d5a565b81016020851015610e8e578190505b610ea2610e9a85610d5a565b830182610e41565b50505b505050565b600082821c905092915050565b6000610ec860001984600802610eaa565b1980831691505092915050565b6000610ee18383610eb7565b9150826002028217905092915050565b610efa826105b9565b67ffffffffffffffff811115610f1357610f126107ee565b5b610f1d8254610a7f565b610f28828285610e64565b600060209050601f831160018114610f5b5760008415610f49578287015190505b610f538582610ed5565b865550610fbb565b601f198416610f6986610d45565b60005b82811015610f9157848901518255600182019150602085019450602081019050610f6c565b86831015610fae5784890151610faa601f891682610eb7565b8355505b6001600288020188555050505b50505050505056fea26469706673582212200d66373e87a1f9821af0af961eeb27d9c0f97ef6f76d569df46c8ca97903a33064736f6c634300081a0033",
  "linkReferences": {},
  "deployedLinkReferences": {}
}